:04000000B1EF2FF03D
:105F5800BAEC2FF0D5EC2FF0FDD700EE01F0200EB3
:105F6800EE6AE806FDE10001ACEF2FF0C2900F0EDB
:105F7800C16E9490828094928292000E216E0F0ED0
:105F8800216401D012002150020D010EF324D96EB4
:105F9800000EF420DA6E000EDE6E000EDD6E212A91
:105FA800EED78282828000F000F000F000F082924A
:105FB80000F01F6820680F0E216E2106829000F005
:105FC8002150020D010EF324D96E000EF420DA6E72
:105FD800FF0EDF6E2150020D010EF326000EF42293
:105FE800010EF324D96E000EF420DA6EFF0EDF6E78
:085FF8002150D8B41200E1D7DA
:020000040020DA
:08000000FFFFFFFFFFFFFFFF00
:020000040030CA
:0E000000050C2701FF8185FF0FC00FE00F40A8
:00000001FF
