:04000000B5EF05F063
:10080000005265616479210A0000000E276E000E17
:10081000E2EC05F02250E2EC05F02250271A2150BC
:10082000E2EC05F02150271A000E286E0F0E286406
:1008300001D034D02850020D010EF324D96E000EE1
:10084000F420DA6EDF50E2EC05F02850020D010EC4
:10085000F324D96E000EF420DA6EDF50271A2850E8
:10086000020D010EF326000EF422010EF324D96EC0
:10087000000EF420DA6EDF50E2EC05F02850020D95
:10088000010EF326000EF422010EF324D96E000EA1
:10089000F420DA6EDF50271A282AC8D72750E2EC56
:1008A00005F01200C2900F0EC16ED58ED59CD59A60
:1008B000D596D550F80B0509D56E94908280949208
:1008C00082929484948C948EAC9CAC8AAC98AB8EBF
:1008D000AB9CAB88B886AC94000EB06E0C0EAF6EBD
:1008E000000E366E0F0E366401D00ED03650020D5B
:1008F000010EF324D96E000EF420DA6E000EDE6EC7
:10090000000EDD6E362AEED7010EF66E080EF76E7B
:1009100020EE2EF0070E0900F5CFDEFFE806FBE221
:100920002E0E276E000E286E070E296E9BEC05F02A
:10093000CCEC05F012002BC024F02CC025F0000EEA
:10094000276E0A0E266E51EC05F024C02FF025C04C
:1009500030F02BC024F02CC025F0000E276E0A0EBC
:10096000266E7AEC05F02450316E000E336E000EC8
:10097000326E0AD04E0E2D6EEB0EE82EFED72D2EC7
:10098000FCD700F0324A332A2F50325C30503358B3
:10099000D8A0F0D7000E336E000E326E09D0080ECC
:1009A0002D6ECA0EE82EFED72D2EFCD7324A332AE2
:1009B00031502D6E2E6A2D50325C2E503358D8B0E7
:1009C0001200EDD752EC04F004009EAA2DD0AECF59
:1009D00038F0000E396E24D0080E376ECA0EE82E9D
:1009E000FED7372EFCD79EAA03D0AECF3BF002D065
:1009F000010E396E080E376ECA0EE82EFED7372E5E
:100A0000FCD79EAA03D0AECF3AF002D0010E396EC9
:100A10003950D8A409D03AC03CF03BC03DF004D0D6
:100A20003850A30AD8B4D8D782A4CED73CC02BF074
:100A30003DC02CF09BEC04F021EC05F005EC04F03B
:100A4000C3D78282D6CF21F0D7CF22F0828000F0A8
:100A500000F000F000F0829200F01F6820680F0E96
:100A6000246E2406829000F02450020D010EF3241F
:100A7000D96E000EF420DA6EFF0EDF6E2450020DE8
:100A8000010EF326000EF422010EF324D96E000E9F
:100A9000F420DA6EFF0EDF6E82802450D8B412008C
:100AA000E0D7000E296E000E286E26502710D8B40D
:100AB0001CD0010E2A6E04D0D890263627362A2A5A
:100AC00027AEFAD7D890283629362650245C2750EE
:100AD0002558D8A005D02650245E2750255A2880B6
:100AE000D890273226322A2EEDD728C024F029C0EC
:100AF00025F0120026502710D8B418D0010E286E09
:100B000004D0D89026362736282A27AEFAD7265082
:100B1000245C27502558D8A004D02650245E2750A6
:100B2000255AD89027322632282EF1D724C024F017
:100B300025C025F01200000E2D6E000E2C6E0BD07D
:100B40002C502724D96E2D502820DA6EDF50E2EC8D
:100B500005F02C4A2D2A29502A6E2B6A2A502C5C2B
:100B60002B502D58D8B01200EBD7E00EF66E0B0EBE
:100B7000F76E000EF86E0900F5CF3CF00900F5CFD6
:100B80003DF000EE01F0230EEE6AE806FDE1000EF6
:100B9000F86E0001E2EF04F06F886F84FC0E6F16B0
:100BA0006F8C708870967084708270907098708668
:100BB000709470827090000E04010E6F050E040197
:100BC0000F6F1200266E26C0ADFF00F0000E256EDE
:100BD000000E246E02D0244A252A9EB81200FBD7AC
:020BE0006400AF
:020000040020DA
:08000000FFFFFFFFFFFFFFFF00
:020000040030CA
:0E000000050C2700FF8185FF0FC00FE00F40A9
:00000001FF
