:0400000096EF2FF058
:105F20006400ABEC2FF0CEEC2FF0FDD7200EF66E18
:105F30005F0EF76E000EF86E0900F5CF25F0090030
:105F4000F5CF26F000EE01F0240EEE6AE806FDE142
:105F5000000191EF2FF0C2900F0EC16ED58ED59C2F
:105F6000D59AD596D550F80B0509D56E94908280B8
:105F700094928292000E276E0F0E276401D01200B9
:105F80002750020D010EF324D96E000EF420DA6EB4
:105F9000000EDE6E000EDD6E272AEED78282D6CF8F
:105FA00021F0D7CF22F0828000F000F000F000F066
:105FB000829200F01F6820680F0E276E27068290DD
:105FC00000F082802750020D010EF324D96E000EDE
:105FD000F420DA6EFF0EDF6E2750020D010EF3265D
:105FE000000EF422010EF324D96E000EF420DA6EB6
:105FF000FF0EDF6E2750D8A4E1D7010E236E1200EA
:020000040020DA
:08000000FFFFFFFFFFFFFFFF00
:020000040030CA
:0E000000050C2701FF8185FF0FC00FE00F40A8
:00000001FF
