:04000000D0EF05F048
:10080000005265616479210A0000F6EC04F00400EE
:100810009EAA50D0AECF38F0000E396E2BD0020E0B
:1008200003D0000E01D0010E236E44D0080E376EA7
:10083000CA0EE82EFED7372EFCD79EAA03D0AECF25
:100840003BF002D0010E396E080E376ECA0EE82E4C
:10085000FED7372EFCD79EAA03D0AECF3AF002D0F7
:10086000010E396E3950D8A425D03AC03CF03BC0B7
:100870003DF020D03850A00AD8B4D1D7010AD8B45E
:10088000D0D7030AD8B4CFD7010AD8B4CFD712D063
:100890003CEC05F062EC04F0000E236EB8D73CC0CF
:1008A0002BF03DC02CF0AFEC04F03CEC05F062EC1A
:1008B00004F0ADD72350010AD8B4EAD7030AD8B45C
:1008C000EED7A5D7000E276E000EE7EC05F02250FC
:1008D000E7EC05F02250271A2150E7EC05F02150F3
:1008E000271A000E286E0F0E286401D034D028502D
:1008F000020D010EF324D96E000EF420DA6EDF50E3
:10090000E7EC05F02850020D010EF324D96E000E1D
:10091000F420DA6EDF50271A2850020D010EF3265C
:10092000000EF422010EF324D96E000EF420DA6ECC
:10093000DF50E7EC05F02850020D010EF326000E03
:10094000F422010EF324D96E000EF420DA6EDF508B
:10095000271A282AC8D72750E7EC05F012002BC029
:1009600024F02CC025F0000E276E0A0E266E6CECCB
:1009700005F024C02FF025C030F02BC024F02CC08F
:1009800025F0000E276E0A0E266E95EC05F0245019
:10099000316E000E336E000E326E0AD04E0E2D6E8A
:1009A000EB0EE82EFED72D2EFCD700F0324A332A6C
:1009B0002F50325C30503358D8A0F0D7000E336E31
:1009C000000E326E09D0080E2D6ECA0EE82EFED72C
:1009D0002D2EFCD7324A332A31502D6E2E6A2D50DF
:1009E000325C2E503358D8B01200EDD7C2900F0EA3
:1009F000C16ED58ED59CD59AD596D550F80B0509E4
:100A0000D56E9490828094928292948C948EAC9CB9
:100A1000AC8AAC98AB8EAB9CAB88B886AC94000E1D
:100A2000B06E0C0EAF6E000E366E0F0E366401D037
:100A30000ED03650020D010EF324D96E000EF420B4
:100A4000DA6E000EDE6E000EDD6E362AEED7010E77
:100A5000F66E080EF76E20EE2EF0070E0900F5CFA9
:100A6000DEFFE806FBE22E0E276E000E286E070E54
:100A7000296EB6EC05F012008282D6CF21F0D7CFD6
:100A800022F0828000F000F000F000F0829200F08E
:100A90001F6820680F0E246E2406829000F082806A
:100AA0002450020D010EF324D96E000EF420DA6EEC
:100AB000FF0EDF6E2450020D010EF326000EF4220D
:100AC000010EF324D96E000EF420DA6EFF0EDF6EF5
:100AD0002450D8B41200E0D7000E296E000E286E04
:100AE00026502710D8B41CD0010E2A6E04D0D890FE
:100AF000263627362A2A27AEFAD7D890283629361E
:100B00002650245C27502558D8A005D02650245EB6
:100B10002750255A2880D890273226322A2EEDD702
:100B200028C024F029C025F0120026502710D8B480
:100B300018D0010E286E04D0D89026362736282AE1
:100B400027AEFAD72650245C27502558D8A004D0C9
:100B50002650245E2750255AD89027322632282E38
:100B6000F1D724C024F025C025F01200000E2D6E10
:100B7000000E2C6E0BD02C502724D96E2D5028201F
:100B8000DA6EDF50E7EC05F02C4A2D2A29502A6E48
:100B90002B6A2A502C5C2B502D58D8B01200EBD762
:100BA000EA0EF66E0B0EF76E000EF86E0900F5CF2A
:100BB0003CF00900F5CF3DF000EE01F0230EEE6AA7
:100BC000E806FDE1000EF86E000105EF04F0266E68
:100BD00026C0ADFF00F0000E256E000E246E02D080
:0C0BE000244A252A9EB81200FBD76400AE
:020000040020DA
:08000000FFFFFFFFFFFFFFFF00
:020000040030CA
:0E000000050C2701FF8185FF0FC00FE00F40A8
:00000001FF
